:100000000C942A000C9447000C9447000C94470071
:100010000C9447000C9447000C9447000C94470044
:100020000C9447000C9447000C9447000C94470034
:100030000C9447000C9447000C9447000C94470024
:100040000C9447000C9447000C9447000C94470014
:100050000C94470011241FBECFE5D4E0DEBFCDBF16
:1000600010E0A0E6B0E0E6E9F9E202C005900D92EA
:10007000A43AB107D9F710E0A4EAB0E001C01D929C
:10008000AF3AB107E1F70E9425140C94C9140C94FF
:100090000000EF92FF920F931F937B018C0120E0F1
:1000A00030E040E05FE40E94F50388238CF0C80153
:1000B000B70120E030E040E05FE40E94C1010E940F
:1000C00055049B01AC01205030404040504806C0D0
:1000D000C801B7010E9455049B01AC01B901CA01D6
:1000E0001F910F91FF90EF900895A0E0B0E0EBE733
:1000F000F0E00C949214DC012B01FA019C919230F7
:1001000008F439C1EB018881823008F433C194309E
:1001100069F4843009F02FC111969C91119789815F
:10012000981709F428C1A9E9B0E025C1843009F481
:1001300021C18230A9F4923009F01DC19A01AD01AC
:1001400088E0EA010990AE01E90109929E0181501F
:10015000C1F7E201898111969C918923818308C1AD
:10016000923009F407C112962D903C901397EB0141
:100170008A819B811496AD90BD90CD90DC901797AD
:10018000EC80FD800E811F819101281B390BB90184
:1001900037FF04C066277727621B730B6032710537
:1001A0000CF061C0121613066CF537014801062EDB
:1001B00004C096948794779467940A94D2F721E0C8
:1001C00030E040E050E004C0220F331F441F551FB1
:1001D0006A95D2F721503040404050402E213F21B7
:1001E00040235123211531054105510521F021E01E
:1001F00030E040E050E079018A01E628F72808293C
:1002000019293CC0232BD1F1260E371E350146019A
:10021000062E04C096948794779467940A94D2F734
:1002200021E030E040E050E004C0220F331F441FC3
:10023000551F6A95D2F721503040404050402A2146
:100240003B214C215D21211531054105510521F04E
:1002500021E030E040E050E059016A01A628B728CB
:10026000C828D9280BC0821593052CF01C01AA249C
:10027000BB24650103C0EE24FF24870111969C91E5
:10028000D20111968C91981709F445C0992339F041
:10029000A80197012A193B094C095D0906C0A6016E
:1002A00095012E193F09400B510B57FD08C01182D3
:1002B0003382228224833583468357831DC081E0A5
:1002C00081833382228288279927DC01821B930B4A
:1002D000A40BB50B84839583A683B7830DC0220F2F
:1002E000331F441F551F24833583468357838281E0
:1002F000938101979383828324813581468157813D
:10030000DA01C9010197A109B1098F5F9F4FAF4F72
:10031000BF4328F30BC0918333822282EA0CFB1C7B
:100320000C1D1D1DE482F5820683178383E0808304
:10033000248135814681578157FF1AC0C901AA27F8
:1003400097FDA095BA2F81709070A070B0705695EF
:10035000479537952795822B932BA42BB52B848318
:100360009583A683B7838281938101969383828349
:10037000DF0101C0D201CD01CDB7DEB7E2E10C94BF
:10038000AE14A0E2B0E0E7ECF1E00C949E146983B7
:100390007A838B839C832D833E834F835887E9E048
:1003A000EE2EF12CEC0EFD1ECE010196B7010E943F
:1003B0007E058E010F5E1F4FCE010596B8010E948B
:1003C0007E058A8991E089278A8BC701B801AE0131
:1003D000475E5F4F0E9475000E94A904A096E6E068
:1003E0000C94BA14A0E2B0E0E8EFF1E00C949E1493
:1003F00069837A838B839C832D833E834F835887C5
:10040000F9E0EF2EF12CEC0EFD1ECE010196B701A6
:100410000E947E058E010F5E1F4FCE010596B8012A
:100420000E947E05C701B801AE01475E5F4F0E9482
:1004300075000E94A904A096E6E00C94BA14A0E20C
:10044000B0E0E5E2F2E00C94921469837A838B8346
:100450009C832D833E834F835887CE010196BE0136
:10046000675F7F4F0E947E05CE010596BE016F5EDD
:100470007F4F0E947E059985923088F0898982306D
:10048000C8F0943019F4823051F404C0843029F457
:10049000923081F489E990E0C6C0923049F420E0BE
:1004A0009A858A89981321E02A87CE010996BBC0D4
:1004B000823049F420E09A858A89981321E02A8BBA
:1004C000CE014196B0C02D843E844F8458886D88FB
:1004D0007E888F88988CEE24FF248701AA24BB2471
:1004E000650140E050E060E070E0E0E0F0E0C10174
:1004F00081709070892BE9F0E60CF71C081D191D1E
:100500009A01AB012A0D3B1D4C1D5D1D80E090E062
:10051000A0E0B0E0E614F7040805190520F481E036
:1005200090E0A0E0B0E0BA01A901480F591F6A1F8E
:100530007B1FAA0CBB1CCC1CDD1C97FE08C081E0F5
:1005400090E0A0E0B0E0A82AB92ACA2ADB2A3196B6
:10055000E032F10549F0660C771C881C991C569412
:10056000479437942794C3CFFA85EA892B893C892D
:100570008B859C85280F391F2E5F3F4F17C0CA01FE
:1005800081709070892B61F016950795F794E79428
:1005900080E090E0A0E0B0E8E82AF92A0A2B1B2BC3
:1005A00076956795579547952F5F3F4F77FDE7CF36
:1005B0000CC0440F551F661F771F17FD4160EE0CDE
:1005C000FF1C001F111F21503040403090E05907A0
:1005D00090E0690790E4790760F32B8F3C8FDB0193
:1005E000CA018F779070A070B07080349105A1051A
:1005F000B10561F447FD0AC0E114F10401051105DC
:1006000029F0405C5F4F6F4F7F4F40781A8EFE1786
:1006100011F081E08A8F4D8F5E8F6F8F78A383E01A
:10062000898FCE0149960E94A904A096E2E10C941C
:10063000AE14A8E1B0E0EFE1F3E00C949A14698302
:100640007A838B839C832D833E834F835887B9E0C5
:10065000EB2EF12CEC0EFD1ECE010196B7010E948F
:100660007E058E010F5E1F4FCE010596B8010E94D8
:100670007E052985223008F47EC03989323010F495
:10068000B8017CC08A859A8989278A87243011F02D
:10069000223031F4231709F06EC069E970E06EC0B2
:1006A000343039F41D861E861F86188A1C861B86E8
:1006B00004C0323021F484E08987B7015FC02B8504
:1006C0003C858B899C89281B390B3C872B87ED84C3
:1006D000FE840F851889AD88BE88CF88D88CEA142F
:1006E000FB040C051D0540F4EE0CFF1C001F111F40
:1006F000215030403C872B8720E030E040E050E044
:1007000080E090E0A0E0B0E460E070E0EA14FB0478
:100710000C051D0540F0282B392B4A2B5B2BEA18C2
:10072000FB080C091D09B695A79597958795EE0CC2
:10073000FF1C001F111F6F5F7F4F6F31710531F775
:10074000DA01C9018F779070A070B0708034910584
:10075000A105B10561F427FD0AC0E114F10401050A
:10076000110529F0205C3F4F4F4F5F4F20782D87B8
:100770003E874F87588BBE01675F7F4FCB010E943A
:10078000A9046896EAE00C94B614A8E1B0E0EBEC9A
:10079000F3E00C949E1469837A838B839C832D836E
:1007A0003E834F83588789E0E82EF12CEC0EFD1E26
:1007B000CE010196B7010E947E058E010F5E1F4F8C
:1007C000CE010596B8010E947E058985823040F0F1
:1007D0008989823028F0C701B8010E94F60501C05E
:1007E0008FEF6896E6E00C94BA14A8E1B0E0EBEF66
:1007F000F3E00C949E1469837A838B839C832D830E
:100800003E834F83588789E0E82EF12CEC0EFD1EC5
:10081000CE010196B7010E947E058E010F5E1F4F2B
:10082000CE010596B8010E947E058985823040F090
:100830008989823028F0C701B8010E94F60501C0FD
:100840008FEF6896E6E00C94BA14A8E1B0E0EBE212
:10085000F4E00C949E1469837A838B839C832D83AC
:100860003E834F83588789E0E82EF12CEC0EFD1E65
:10087000CE010196B7010E947E058E010F5E1F4FCB
:10088000CE010596B8010E947E058985823040F030
:100890008989823028F0C701B8010E94F60501C09D
:1008A00081E06896E6E00C94BA14ACE0B0E0EBE5C9
:1008B000F4E00C94A21469837A838B839C83CE0129
:1008C0000196BE016B5F7F4F0E947E058D81823055
:1008D00061F1823050F1843021F48E81882351F10E
:1008E0002EC02F81388537FD20C06E812F31310514
:1008F0001CF06623F9F023C08EE190E0821B930B7D
:1009000029853A854B855C8504C056954795379572
:1009100027958A95D2F76623B1F05095409530958A
:1009200021953F4F4F4F5F4F0EC020E030E040E039
:1009300050E009C02FEF3FEF4FEF5FE704C020E02A
:1009400030E040E050E8B901CA012C96E2E00C9496
:10095000BE14DF92EF92FF920F931F93FC01E4808D
:10096000F58006811781D1808081823048F480E053
:1009700090E0A0E1B0E0E82AF92A0A2B1B2BA5C0E1
:10098000843009F49FC0823021F4EE24FF248701D3
:1009900005C0E114F1040105110519F4E0E0F0E0EF
:1009A00096C0628173819FEF623879070CF05BC05B
:1009B00022E83FEF261B370B2A3131052CF020E0CF
:1009C00030E040E050E02AC0B801A701022E04C088
:1009D00076956795579547950A94D2F781E090E010
:1009E000A0E0B0E004C0880F991FAA1FBB1F2A9582
:1009F000D2F70197A109B1098E219F21A023B1232C
:100A00000097A105B10521F081E090E0A0E0B0E001
:100A10009A01AB01282B392B4A2B5B2BDA01C90138
:100A20008F779070A070B07080349105A105B105EA
:100A300039F427FF09C0205C3F4F4F4F5F4F04C080
:100A4000215C3F4F4F4F5F4FE0E0F0E02030A0E0EF
:100A50003A07A0E04A07A0E45A0710F0E1E0F0E00E
:100A600079018A0127C06038710564F5FB01E158FE
:100A7000FF4FD801C7018F779070A070B07080349D
:100A80009105A105B10539F4E7FE0DC080E490E0C1
:100A9000A0E0B0E004C08FE390E0A0E0B0E0E80E9A
:100AA000F91E0A1F1B1F17FF05C016950795F7941F
:100AB000E794319687E016950795F794E7948A9521
:100AC000D1F705C0EE24FF248701EFEFF0E06E2F91
:100AD000679566276795902F9F77D794DD24D794E5
:100AE0008E2F8695492F462B582F5D29B701CA01B5
:100AF0001F910F91FF90EF90DF900895FC01DB01B3
:100B0000408151812281622F6F7770E0221F22275E
:100B1000221F9381892F880F822B282F30E0991F65
:100B20009927991F11969C93119721153105A9F5C5
:100B3000411551056105710511F482E037C082E865
:100B40009FEF13969C938E9312979A01AB0167E0E7
:100B5000220F331F441F551F6A95D1F783E08C93F2
:100B60000DC0220F331F441F551F12968D919C916B
:100B70001397019713969C938E931297203080E0E1
:100B8000380780E0480780E4580758F314962D93FF
:100B90003D934D935C93179708952F3F310579F45A
:100BA000411551056105710519F484E08C93089590
:100BB00064FF03C081E08C9312C01C9210C02F57B9
:100BC000304013963C932E93129783E08C9387E0EA
:100BD000440F551F661F771F8A95D1F770641496CE
:100BE0004D935D936D937C93179708951F93DC014C
:100BF000FB019C91923008F447C08081823008F458
:100C000043C0943051F411961C91843099F5818140
:100C1000682F70E0611B71093FC0843021F0923071
:100C200031F48230B9F18181882389F12DC0119688
:100C30001C9111978230F1F081811817D9F4129626
:100C40002D913C911397828193818217930794F0A1
:100C500028173907BCF014968D919D910D90BC9189
:100C6000A02D2481358146815781281739074A07ED
:100C70005B0718F4112341F00AC082179307A407F9
:100C8000B50740F4112319F061E070E005C06FEF83
:100C90007FEF02C060E070E0CB011F910895DF9309
:100CA000CF930F92CDB7DEB78983A7E3B0E0E7E338
:100CB000F0E0808188608C93ECE5F0E08981882FFA
:100CC00090E0982F882724E630E0B9010E94421472
:100CD000CB0181508083E3E5F0E084E680830F90D0
:100CE000CF91DF910895DF93CF930F92CDB7DEB709
:100CF0008983A1E3B0E0E1E3F0E0808180688C9338
:100D0000E3E4F0E08981882F90E0982F882724E69B
:100D100030E0B9010E944214CB0181508083E5E4A8
:100D2000F0E084E680830F90CF91DF910895DF9308
:100D3000CF9300D000D0CDB7DEB79C838B838B815F
:100D40009C819C0140E050E080E291EAA7E0B0E0A5
:100D5000BC01CD010E945514DA01C90101979A83A3
:100D60008983E0E4F0E086E88083EAE2F0E088E16D
:100D70008083E0E4F0E089819A81892F992780833C
:100D8000E9E2F0E0898180830F900F900F900F903F
:100D9000CF91DF910895DF93CF930F92CDB7DEB758
:100DA0008983EBE2F0E08081882F90E08072907080
:100DB0000097B9F3ECE2F0E0898180830F90CF9146
:100DC000DF910895DF93CF93CDB7DEB7EBE2F0E08C
:100DD00080818823DCF7ECE2F0E08081CF91DF9125
:100DE0000895DF93CF9300D000D00F92CDB7DEB738
:100DF0009B838A837D836C83198203C089818F5F83
:100E000089838981282F30E08A819B81DC01A20FB0
:100E1000B31F8981282F30E08C819D81FC01E20F76
:100E2000F31F80818C938C91882341F70F900F9052
:100E30000F900F900F90CF91DF910895DF93CF9394
:100E4000CDB7DEB72A970FB6F894DEBF0FBECDBF81
:100E50009D838C837F836E831B821A8281E08983CA
:100E60008B81282F30E08C819D81FC01E20FF31FE4
:100E7000808189878985882311F081E08987898528
:100E80009B819F5F9B83882359F78A81282F30E0BD
:100E90008E819F81FC01E20FF31F80818A878A8502
:100EA000882311F081E08A878A859A819F5F9A83DF
:100EB000882359F79B818A81981711F0198228C0DD
:100EC0008B8181508B8321C08B81882F90E09C0186
:100ED000215030408C819D81FC01E20FF31F408145
:100EE0008B81882F90E09C01215030408E819F8122
:100EF000FC01E20FF31F8081481721F019828981DC
:100F0000888708C08B8181508B838B818823E1F691
:100F10008981888788852A960FB6F894DEBF0FBE30
:100F2000CDBFCF91DF910895DF93CF9300D000D054
:100F3000CDB7DEB79B838A8319828981282F30E061
:100F40008A819B81FC01E20FF31F80818C838C815D
:100F5000882311F081E08C838C8199819F5F998334
:100F6000882359F789818150898389810F900F9057
:100F70000F900F90CF91DF910895DF93CF9300D022
:100F800000D00F92CDB7DEB79D838C831A828C81FF
:100F90009D818A30910540F58A81282F30E08C812F
:100FA000805DF901EC55FF4F80838A818F5F8A83D2
:100FB00058C08A81E82FF0E08C819D812AE030E0E2
:100FC000B9010E942E14805DEC55FF4F80838C8107
:100FD0009D812AE030E0B9010E942E14CB019D834F
:100FE0008C838A818F5F8A838C819D81009709F72A
:100FF000198231C08981882F90E0FC01EC55FF4FA8
:1010000080818B838981482F50E08A81282F30E0AE
:101010008981882F90E0B901681B790BCB0101977A
:10102000FC01EC55FF4F8081FA01EC55FF4F8083A6
:101030008A81282F30E08981882F90E0A901481B00
:10104000590BCA010197FC01EC55FF4F8B8180833E
:1010500089818F5F89838A81982F969589818917E5
:1010600048F28A81882F90E0FC01EC55FF4F1082F6
:1010700084EA90E00F900F900F900F900F90CF9117
:10108000DF910895DF93CF93CDB7DEB72E970FB6DC
:10109000F894DEBF0FBECDBFAAE3B0E0EAE3F0E014
:1010A00080818C608C9380E090E0A0E7B1E48B8736
:1010B0009C87AD87BE876B857C858D859E8520E06E
:1010C00030E04AE753E40E941F02DC01CB018F832A
:1010D0009887A987BA876F81788589859A8520E066
:1010E00030E040E85FE30E94250488232CF481E08F
:1010F00090E09E838D833FC06F81788589859A8536
:1011000020E03FEF4FE757E40E94C50318164CF567
:101110006B857C858D859E8520E030E040E251E442
:101120000E941F02DC01CB01BC01CD010E944900DD
:10113000DC01CB019E838D830FC089E190E09C830D
:101140008B838B819C810197F1F79C838B838D81AD
:101150009E8101979E838D838D819E81009769F783
:1011600014C06F81788589859A850E944900DC01C9
:10117000CB019E838D838D819E819A838983898112
:101180009A810197F1F79A838983AAE3B0E0EAE3B1
:10119000F0E08081806F8C9382E30E94EC0888E20B
:1011A0000E94EC088CE00E94EC0881E00E94EC08B0
:1011B00081E061E00E940A1281E08093A2008091A8
:1011C000A2008093A1002E960FB6F894DEBF0FBE4A
:1011D000CDBFCF91DF9108950F931F93DF93CF93EE
:1011E000CDB7DEB7C957D0400FB6F894DEBF0FBEFB
:1011F000CDBFFE01E758FF4F8083ABE3B0E0EBE3E8
:10120000F0E080818B7F8C93ABE3B0E0EBE3F0E028
:101210008081982F9F70FE01E758FF4F8081807F6B
:10122000892B8C93ABE3B0E0EBE3F0E08081886046
:101230008C93FE01EB58FF4F80E090E0A0E0BFE30D
:1012400080839183A283B3838E010F581F4FFE01C9
:10125000EB58FF4F60817181828193812BEA3AEADA
:101260004AEA5EE30E941F02DC01CB01F8018083A1
:101270009183A283B383FE01EF58FF4F6081718198
:101280008281938120E030E040E85FE30E94250402
:10129000882334F4FE01E059FF4F81E08083E0C0F1
:1012A000FE01EF58FF4F608171818281938120E0C0
:1012B00030E04FE753E40E94C50318160CF0C0C09D
:1012C000FE01EB58FF4F608171818281938120E0A4
:1012D00030E04AE754E40E941903DC01CB01FE012F
:1012E000E459FF4F80839183A283B3838E01085911
:1012F0001F4FFE01E459FF4F60817181828193810C
:1013000020E030E04AE753E40E941F02DC01CB01F9
:10131000F80180839183A283B383FE01E859FF4FD4
:10132000608171818281938120E030E040E85FE359
:101330000E942504882344F4FE01EA59FF4F81E00E
:1013400090E09183808364C0FE01E859FF4F608183
:1013500071818281938120E03FEF4FE757E40E9443
:10136000C50318160CF043C0FE01E459FF4F60811D
:1013700071818281938120E030E040E251E40E945B
:101380001F02DC01CB018E010A591F4FBC01CD01A8
:101390000E944900DC01CB01F801918380831FC0CA
:1013A000FE01EC59FF4F89E190E091838083FE01BB
:1013B000EC59FF4F808191810197F1F7FE01EC59C3
:1013C000FF4F91838083DE01AA59BF4FFE01EA5986
:1013D000FF4F80819181019711969C938E93FE011E
:1013E000EA59FF4F808191810097D1F64BC08E0161
:1013F0000A591F4FFE01E859FF4F608171818281B8
:1014000093810E944900DC01CB01F8019183808324
:10141000DE01AE59BF4FFE01EA59FF4F8081918135
:1014200011969C938E93FE01EE59FF4F808191811E
:101430000197F1F7FE01EE59FF4F9183808322C09F
:101440008E0100591F4FFE01EF58FF4F60817181DF
:10145000828193810E944900DC01CB01F8018083E5
:10146000DE01AF59BF4FFE01E059FF4F80818C93E1
:10147000FE01EF59FF4F80818A95F1F7FE01EF5988
:10148000FF4F8083ABE3B0E0EBE3F0E08081877F48
:101490008C93FE01E35AFF4F80E090E0ACE8B2E4A9
:1014A00080839183A283B3838E01075A1F4FFE016D
:1014B000E35AFF4F60817181828193812BEA3AEA7E
:1014C0004AEA5EE30E941F02DC01CB01F80180833F
:1014D0009183A283B383FE01E75AFF4F608171813C
:1014E0008281938120E030E040E85FE30E942504A0
:1014F000882334F4FE01E85AFF4F81E08083E0C086
:10150000FE01E75AFF4F608171818281938120E063
:1015100030E04FE753E40E94C50318160CF0C0C03A
:10152000FE01E35AFF4F608171818281938120E047
:1015300030E04AE754E40E941903DC01CB01FE01CC
:10154000EC5AFF4F80839183A283B3838E01005BAB
:101550001F4FFE01EC5AFF4F6081718182819381A0
:1015600020E030E04AE753E40E941F02DC01CB0197
:10157000F80180839183A283B383FE01E05BFF4F78
:10158000608171818281938120E030E040E85FE3F7
:101590000E942504882344F4FE01E25BFF4F81E0B2
:1015A00090E09183808364C0FE01E05BFF4F608127
:1015B00071818281938120E03FEF4FE757E40E94E1
:1015C000C50318160CF043C0FE01EC5AFF4F6081B2
:1015D00071818281938120E030E040E251E40E94F9
:1015E0001F02DC01CB018E01025B1F4FBC01CD014C
:1015F0000E944900DC01CB01F801918380831FC068
:10160000FE01E45BFF4F89E190E091838083FE015E
:10161000E45BFF4F808191810197F1F7FE01E45B6C
:10162000FF4F91838083DE01A25BBF4FFE01E25B2F
:10163000FF4F80819181019711969C938E93FE01BB
:10164000E25BFF4F808191810097D1F64BC08E0104
:10165000025B1F4FFE01E05BFF4F60817181828161
:1016600093810E944900DC01CB01F80191838083C2
:10167000DE01A65BBF4FFE01E25BFF4F80819181DF
:1016800011969C938E93FE01E65BFF4F80819181C2
:101690000197F1F7FE01E65BFF4F9183808322C043
:1016A0008E01085A1F4FFE01E75AFF4F608171817A
:1016B000828193810E944900DC01CB01F801808383
:1016C000DE01A75BBF4FFE01E85AFF4F80818C937C
:1016D000FE01E75BFF4F80818A95F1F7FE01E75B32
:1016E000FF4F8083ABE3B0E0FE01E758FF4F8081FE
:1016F000882F90E082959295907F9827807F9827F9
:10170000982FEBE3F0E080818F70892B8C93ABE313
:10171000B0E0EBE3F0E0808188608C93FE01EB5B4E
:10172000FF4F8AE999E9A9E9BEE380839183A28307
:10173000B3838E010F5B1F4FFE01EB5BFF4F608198
:101740007181828193812BEA3AEA4AEA5EE30E9440
:101750001F02DC01CB01F80180839183A283B38354
:10176000FE01EF5BFF4F608171818281938120E0F8
:1017700030E040E85FE30E942504882334F481E0F0
:10178000FE01E05CFF4F80839DC0FE01EF5BFF4FD9
:10179000608171818281938120E030E04FE753E4E2
:1017A0000E94C50318160CF07EC0FE01EB5BFF4FD4
:1017B000608171818281938120E030E04AE754E4C6
:1017C0000E941903DC01CB018CAF9DAFAEAFBFAF60
:1017D0006CAD7DAD8EAD9FAD20E030E04AE753E4C7
:1017E0000E941F02DC01CB0188AF99AFAAAFBBAF4B
:1017F00068AD79AD8AAD9BAD20E030E040E85FE3B5
:101800000E94250488232CF481E090E09FAB8EABEE
:101810003FC068AD79AD8AAD9BAD20E03FEF4FE7AB
:1018200057E40E94C50318164CF56CAD7DAD8EAD26
:101830009FAD20E030E040E251E40E941F02DC0155
:10184000CB01BC01CD010E944900DC01CB019FAB63
:101850008EAB0FC089E190E09DAB8CAB8CA99DA9AC
:101860000197F1F79DAB8CAB8EA99FA901979FAB18
:101870008EAB8EA99FA9009769F72DC068AD79AD91
:101880008AAD9BAD0E944900DC01CB019FAB8EABC2
:101890008EA99FA99BAB8AAB8AA99BA90197F1F757
:1018A0009BAB8AAB18C0FE01EF5BFF4F608171817B
:1018B000828193810E944900DC01CB01FE01E05C42
:1018C000FF4F8083FE01E05CFF4F808189AB89A9D7
:1018D0008A95F1F789ABABE3B0E0EBE3F0E0808110
:1018E000877F8C93FE01E758FF4F8081882F90E01F
:1018F00001978230910508F0BFC080E090E0AAEF28
:10190000B4E48DA79EA7AFA7B8AB6DA57EA58FA5A4
:1019100098A92BEA3AEA4AEA5EE30E941F02DC0138
:10192000CB0189A79AA7ABA7BCA769A57AA58BA568
:101930009CA520E030E040E85FE30E942504882376
:101940001CF481E088A791C069A57AA58BA59CA508
:1019500020E030E04FE753E40E94C50318160CF076
:101960007BC06DA57EA58FA598A920E030E04AE751
:1019700054E40E941903DC01CB018CA39DA3AEA308
:10198000BFA36CA17DA18EA19FA120E030E04AE71A
:1019900053E40E941F02DC01CB0188A399A3AAA3F0
:1019A000BBA368A179A18AA19BA120E030E040E817
:1019B0005FE30E94250488232CF481E090E09F8F50
:1019C0008E8F3FC068A179A18AA19BA120E03FEF43
:1019D0004FE757E40E94C50318164CF56CA17DA192
:1019E0008EA19FA120E030E040E251E40E941F025E
:1019F000DC01CB01BC01CD010E944900DC01CB011F
:101A00009F8F8E8F0FC089E190E09D8F8C8F8C8D82
:101A10009D8D0197F1F79D8F8C8F8E8D9F8D0197F6
:101A20009F8F8E8F8E8D9F8D009769F7E3C068A181
:101A300079A18AA19BA10E944900DC01CB019F8F63
:101A40008E8F8E8D9F8D9B8F8A8F8A8D9B8D019718
:101A5000F1F79B8F8A8FCEC069A57AA58BA59CA52F
:101A60000E944900DC01CB0188A788A5898F898D58
:101A70008A95F1F7898FBEC080E090E0A8E4B3E4D6
:101A80008D8B9E8BAF8BB88F6D897E898F89988D5A
:101A90002BEA3AEA4AEA5EE30E941F02DC01CB012C
:101AA000898B9A8BAB8BBC8B69897A898B899C8952
:101AB00020E030E040E85FE30E94250488231CF426
:101AC00081E0888B91C069897A898B899C8920E023
:101AD00030E04FE753E40E94C50318160CF07BC0BA
:101AE0006D897E898F89988D20E030E04AE754E443
:101AF0000E941903DC01CB018C879D87AE87BF87CD
:101B00006C857D858E859F8520E030E04AE753E433
:101B10000E941F02DC01CB0188879987AA87BB87B7
:101B2000688579858A859B8520E030E040E85FE321
:101B30000E94250488232CF481E090E09F838E830B
:101B40003FC0688579858A859B8520E03FEF4FE718
:101B500057E40E94C50318164CF56C857D858E856B
:101B60009F8520E030E040E251E40E941F02DC014A
:101B7000CB01BC01CD010E944900DC01CB019F8358
:101B80008E830FC089E190E09D838C838C819D8141
:101B90000197F1F79D838C838E819F8101979F83AD
:101BA0008E838E819F81009769F724C0688579852F
:101BB0008A859B850E944900DC01CB019F838E832F
:101BC0008E819F819B838A838A819B810197F1F714
:101BD0009B838A830FC069897A898B899C890E943B
:101BE0004900DC01CB01888B8889898389818A95AA
:101BF000F1F78983C758DF4F0FB6F894DEBF0FBEE9
:101C0000CDBFCF91DF911F910F9108950F931F9337
:101C1000DF93CF93CDB7DEB7C156D0400FB6F8945F
:101C2000DEBF0FBECDBFFE01EF59FF4F8083ABE398
:101C3000B0E0EBE3F0E0808184608C93ABE3B0E054
:101C4000EBE3F0E08081982F9F70FE01EF59FF4F8A
:101C50008081807F892B8C93ABE3B0E0EBE3F0E0F5
:101C6000808188608C93FE01E35AFF4F8AE999E9ED
:101C7000A9E9BEE380839183A283B3838E01075ACF
:101C80001F4FFE01E35AFF4F608171818281938172
:101C90002BEA3AEA4AEA5EE30E941F02DC01CB012A
:101CA000F80180839183A283B383FE01E75AFF4F3B
:101CB000608171818281938120E030E040E85FE3C0
:101CC0000E942504882334F4FE01E85AFF4F81E086
:101CD0008083E0C0FE01E75AFF4F608171818281FD
:101CE000938120E030E04FE753E40E94C5031816CB
:101CF0000CF0C0C0FE01E35AFF4F60817181828108
:101D0000938120E030E04AE754E40E941903DC01AB
:101D1000CB01FE01EC5AFF4F80839183A283B383F2
:101D20008E01005B1F4FFE01EC5AFF4F60817181F5
:101D30008281938120E030E04AE753E40E941F0251
:101D4000DC01CB01F80180839183A283B383FE0180
:101D5000E05BFF4F608171818281938120E030E000
:101D600040E85FE30E942504882344F4FE01E25B1F
:101D7000FF4F81E090E09183808364C0FE01E05BCF
:101D8000FF4F608171818281938120E03FEF4FE7B7
:101D900057E40E94C50318160CF043C0FE01EC5A2C
:101DA000FF4F608171818281938120E030E040E2C9
:101DB00051E40E941F02DC01CB018E01025B1F4F28
:101DC000BC01CD010E944900DC01CB01F8019183E7
:101DD00080831FC0FE01E45BFF4F89E190E09183A7
:101DE0008083FE01E45BFF4F808191810197F1F7D1
:101DF000FE01E45BFF4F91838083DE01A25BBF4F56
:101E0000FE01E25BFF4F80819181019711969C93C7
:101E10008E93FE01E25BFF4F808191810097D1F6A6
:101E20004BC08E01025B1F4FFE01E05BFF4F6081E4
:101E30007181828193810E944900DC01CB01F8010C
:101E400091838083DE01A65BBF4FFE01E25BFF4F03
:101E50008081918111969C938E93FE01E65BFF4FEA
:101E6000808191810197F1F7FE01E65BFF4F91833D
:101E7000808322C08E01085A1F4FFE01E75AFF4F90
:101E800060817181828193810E944900DC01CB01D4
:101E9000F8018083DE01A75BBF4FFE01E85AFF4FC8
:101EA00080818C93FE01E75BFF4F80818A95F1F77B
:101EB000FE01E75BFF4F8083ABE3B0E0EBE3F0E0D4
:101EC0008081877F8C93FE01EB5BFF4F80E090E089
:101ED000A8ECB2E480839183A283B3838E010F5B6D
:101EE0001F4FFE01EB5BFF4F608171818281938107
:101EF0002BEA3AEA4AEA5EE30E941F02DC01CB01C8
:101F0000F80180839183A283B383FE01EF5BFF4FCF
:101F1000608171818281938120E030E040E85FE35D
:101F20000E942504882334F481E0FE01E05CFF4F29
:101F300080839DC0FE01EF5BFF4F608171818281D4
:101F4000938120E030E04FE753E40E94C503181668
:101F50000CF07EC0FE01EB5BFF4F608171818281DE
:101F6000938120E030E04AE754E40E941903DC0149
:101F7000CB018CAF9DAFAEAFBFAF6CAD7DAD8EADC5
:101F80009FAD20E030E04AE753E40E941F02DC01ED
:101F9000CB0188AF99AFAAAFBBAF68AD79AD8AADC1
:101FA0009BAD20E030E040E85FE30E9425048823F9
:101FB0002CF481E090E09FAB8EAB3FC068AD79AD73
:101FC0008AAD9BAD20E03FEF4FE757E40E94C50389
:101FD00018164CF56CAD7DAD8EAD9FAD20E030E0B8
:101FE00040E251E40E941F02DC01CB01BC01CD01A3
:101FF0000E944900DC01CB019FAB8EAB0FC089E191
:1020000090E09DAB8CAB8CA99DA90197F1F79DAB9E
:102010008CAB8EA99FA901979FAB8EAB8EA99FA970
:10202000009769F72DC068AD79AD8AAD9BAD0E9470
:102030004900DC01CB019FAB8EAB8EA99FA99BAB66
:102040008AAB8AA99BA90197F1F79BAB8AAB18C011
:10205000FE01EF5BFF4F60817181828193810E945D
:102060004900DC01CB01FE01E05CFF4F8083FE01F3
:10207000E05CFF4F808189AB89A98A95F1F789AB34
:10208000ABE3B0E0FE01EF59FF4F8081882F90E075
:1020900082959295907F9827807F9827982FEBE3E1
:1020A000F0E080818F70892B8C93ABE3B0E0EBE3A1
:1020B000F0E0808188608C938AE999E9A9E9BEE320
:1020C0008DA79EA7AFA7B8AB6DA57EA58FA598A934
:1020D0002BEA3AEA4AEA5EE30E941F02DC01CB01E6
:1020E00089A79AA7ABA7BCA769A57AA58BA59CA52C
:1020F00020E030E040E85FE30E94250488231CF4E0
:1021000081E088A791C069A57AA58BA59CA520E050
:1021100030E04FE753E40E94C50318160CF07BC073
:102120006DA57EA58FA598A920E030E04AE754E48C
:102130000E941903DC01CB018CA39DA3AEA3BFA316
:102140006CA17DA18EA19FA120E030E04AE753E47D
:102150000E941F02DC01CB0188A399A3AAA3BBA301
:1021600068A179A18AA19BA120E030E040E85FE36B
:102170000E94250488232CF481E090E09F8F8E8FAD
:102180003FC068A179A18AA19BA120E03FEF4FE762
:1021900057E40E94C50318164CF56CA17DA18EA1D1
:1021A0009FA120E030E040E251E40E941F02DC01E8
:1021B000CB01BC01CD010E944900DC01CB019F8F06
:1021C0008E8F0FC089E190E09D8F8C8F8C8D9D8DBF
:1021D0000197F1F79D8F8C8F8E8D9F8D01979F8F2B
:1021E0008E8F8E8D9F8D009769F724C068A179A18D
:1021F0008AA19BA10E944900DC01CB019F8F8E8F99
:102200008E8D9F8D9B8F8A8F8A8D9B8D0197F1F785
:102210009B8F8A8F0FC069A57AA58BA59CA50E946C
:102220004900DC01CB0188A788A5898F898D8A9513
:10223000F1F7898FABE3B0E0EBE3F0E08081877FDB
:102240008C9380E090E0A8ECB2E48D8B9E8BAF8BFA
:10225000B88F6D897E898F89988D2BEA3AEA4AEA90
:102260005EE30E941F02DC01CB01898B9A8BAB8B52
:10227000BC8B69897A898B899C8920E030E040E8B1
:102280005FE30E94250488231CF481E0888B91C0C1
:1022900069897A898B899C8920E030E04FE753E493
:1022A0000E94C50318160CF07BC06D897E898F894A
:1022B000988D20E030E04AE754E40E941903DC01E5
:1022C000CB018C879D87AE87BF876C857D858E858A
:1022D0009F8520E030E04AE753E40E941F02DC01C2
:1022E000CB0188879987AA87BB87688579858A8586
:1022F0009B8520E030E040E85FE30E9425048823CE
:102300002CF481E090E09F838E833FC068857985BF
:102310008A859B8520E03FEF4FE757E40E94C50385
:1023200018164CF56C857D858E859F8520E030E004
:1023300040E251E40E941F02DC01CB01BC01CD014F
:102340000E944900DC01CB019F838E830FC089E18D
:1023500090E09D838C838C819D810197F1F79D8313
:102360008C838E819F8101979F838E838E819F8135
:10237000009769F724C0688579858A859B850E94C6
:102380004900DC01CB019F838E838E819F819B83DB
:102390008A838A819B810197F1F79B838A830FC08F
:1023A00069897A898B899C890E944900DC01CB016B
:1023B000888B8889898389818A95F1F789830E942E
:1023C000ED11CF59DF4F0FB6F894DEBF0FBECDBF72
:1023D000CF91DF911F910F910895DF93CF93CDB7E8
:1023E000DEB78091A2008F5F8093A2008091A2004F
:1023F000813168F08091A1008F5F8093A10081E01E
:102400008093A2008091A10061E00E940A12CF9106
:10241000DF910895DF93CF9300D000D000D0CDB7E7
:10242000DEB78D836E838D818093A1008E81809332
:10243000A20080E8898380EC8A8384E98B8384ED21
:102440008C838091A100882F90E09C012150304026
:10245000CE010196FC01E20FF31F90818091A20052
:10246000890F81500E94EC0826960FB6F894DEBFC3
:102470000FBECDBFCF91DF910895DF93CF9300D0F2
:102480000F92CDB7DEB79B838A8319820FC08981F3
:10249000282F30E08A819B81FC01E20FF31F90819D
:1024A00089818F5F8983892F0E94060E8981282F59
:1024B00030E08A819B81FC01E20FF31F8081882339
:1024C00031F70F900F900F90CF91DF910895DF9328
:1024D000CF93CDB7DEB781E00E94EC0881E0809316
:1024E000A2008091A2008093A10081E061E00E949F
:1024F0000A12CF91DF910895DF93CF93CDB7DEB766
:102500002E970FB6F894DEBF0FBECDBF80E895E2E0
:102510000E9497060E94420880E690E00E943D12C9
:1025200080E090E4ACE9B5E48B879C87AD87BE87FB
:102530006B857C858D859E8520E030E04AE753E4FD
:102540000E941F02DC01CB018F839887A987BA877D
:102550006F81788589859A8520E030E040E85FE3E7
:102560000E94250488232CF481E090E09E838D83D3
:102570003FC06F81788589859A8520E03FEF4FE7DE
:1025800057E40E94C50318164CF56B857C858D8534
:102590009E8520E030E040E251E40E941F02DC0111
:1025A000CB01BC01CD010E944900DC01CB019E831F
:1025B0008D830FC089E190E09C838B838B819C810C
:1025C0000197F1F79C838B838D819E8101979E8378
:1025D0008D838D819E81009769F714C06F81788506
:1025E00089859A850E944900DC01CB019E838D83F9
:1025F0008D819E819A83898389819A810197F1F7E0
:102600009A8389830E94671280E890E00E943D12BD
:1026100082E061E00E940A128AE890E00E943D1286
:1026200082E06BE00E940A128FE890E00E943D1267
:10263000A7E3B0E0E7E3F0E0808180628C93A1E360
:10264000B0E0E1E3F0E0808180628C932E960FB6DB
:10265000F894DEBF0FBECDBFCF91DF910895DF9319
:10266000CF930F92CDB7DEB70E94E20689838981AE
:102670008E3459F4A8E3B0E0E8E3F0E080818062B2
:102680008C9384E60E944F06DCC08981883561F412
:10269000A2E3B0E0E2E3F0E0808180628C9384E624
:1026A00090E00E947306CDC08981823509F056C042
:1026B000A8E3B0E0E8E3F0E080818F7D8C9384E6CE
:1026C0000E944F0681E068E00E940A1285E990E0CE
:1026D0000E943D1281E068E00E940A128091A300EE
:1026E00081508093A3008091A300882F90E00E94E6
:1026F000BD070E943D1282E064E00E940A1285E953
:1027000090E00E943D1282E064E00E940A128091F3
:10271000AD008F5F8093AD008091AD00882F90E079
:102720000E94BD070E943D1282E06FE00E940A12E3
:1027300085E990E00E943D1282E06FE00E940A125B
:102740008091AC00882F90E00E94BD070E943D124E
:102750008091AE008F5F8093AE0073C08981843515
:1027600009F057C0A2E3B0E0E2E3F0E080818F7DA2
:102770008C9384E690E00E94730681E068E00E94FA
:102780000A1285E990E00E943D1281E068E00E9413
:102790000A128091A3008F5F8093A3008091A30011
:1027A000882F90E00E94BD070E943D1282E064E005
:1027B0000E940A1285E990E00E943D1282E064E0E6
:1027C0000E940A128091AD00882F90E00E94BD0700
:1027D0000E943D1282E06FE00E940A1285E990E0BB
:1027E0000E943D1282E06FE00E940A128091AC00CC
:1027F0008F5F8093AC008091AC00882F90E00E94A6
:10280000BD070E943D128091AE0081508093AE00C2
:1028100018C089818E3659F4E3E5F0E01082A8E310
:10282000B0E0E8E3F0E080818F7D8C930AC0E5E4BE
:10283000F0E01082A2E3B0E0E2E3F0E080818F7D7F
:102840008C930F90CF91DF910895DF93CF93CDB705
:10285000DEB70E947C120E942F13FDCFAA1BBB1B68
:1028600051E107C0AA1FBB1FA617B70710F0A61B90
:10287000B70B881F991F5A95A9F780959095BC01B1
:10288000CD01089597FB092E07260AD077FD04D0C5
:10289000E5DF06D000201AF4709561957F4F08950A
:1028A000F6F7909581959F4F089597FB092E052681
:1028B0000ED057FD04D014D00AD0001C38F4509527
:1028C0004095309521953F4F4F4F5F4F0895F6F754
:1028D00090958095709561957F4F8F4F9F4F08958C
:1028E000A1E21A2EAA1BBB1BFD010DC0AA1FBB1F14
:1028F000EE1FFF1FA217B307E407F50720F0A21B86
:10290000B30BE40BF50B661F771F881F991F1A94F2
:1029100069F760957095809590959B01AC01BD011C
:10292000CF0108952F923F924F925F926F927F92C4
:102930008F929F92AF92BF92CF92DF92EF92FF92CF
:102940000F931F93CF93DF93CDB7DEB7CA1BDB0B7B
:102950000FB6F894DEBF0FBECDBF09942A88398820
:1029600048885F846E847D848C849B84AA84B98427
:10297000C884DF80EE80FD800C811B81AA81B98133
:10298000CE0FD11D0FB6F894DEBF0FBECDBFED0147
:062990000895F894FFCF4A
:1029960077656C636F6D6520696E206F7572202098
:1029A6007061726B696E67206D616C6C203A2900EC
:1029B600534C4F54533A31353000496E3A30004F3C
:1029C60075743A300020202000000000000000004E
:0429D600000101C833
:00000001FF
